:0400000046EF00F0D7
:100008002182FACF03F0FBCF04F0F2AC0EEF00F040
:1000180010EF00F040EF00F09DA815EF00F017EF8B
:1000280000F020EF00F09EA81CEF00F01EEF00F09B
:1000380020EF00F040EF00F09DAA25EF00F027EF39
:1000480000F030EF00F09EAA2CEF00F02EEF00F049
:1000580030EF00F040EF00F09DA035EF00F037EFF3
:1000680000F040EF00F09EA03CEF00F03EEF00F003
:1000780040EF00F05DEC08F004C0FBFF03C0FAFF9E
:08008800219211007BEF08F04A
:100F00000009111A222B333C444D555E666F7780E1
:100F1000889199A2AAB3BBC4CCD5DDE6EEF7FFF762
:100F2000EEE6DDD5CCC4BBB3AAA299918880776FD9
:100F3000665E564D443C332B221A11090000000016
:100F400000000000000000000000000000000000A1
:100F50000000000000000000000000FFFFFFFFFF96
:100F6000FFFFFFFFFFFFFFFFFFFFFFFFFFFFFFFF91
:100F7000FFFFFFFFFFFFFFFFFFFEFEFCF9F4EEE7C0
:100F8000DED5CABFB3A79A8D7F7265584C40352A0B
:100F90002118110B060301000103060B1118212A69
:100FA00035404C586572808D9AA7B3BFCAD5DEE72D
:100FB000EEF4F9FCFE00400100000FEC09F0F28EA7
:100FC000F28CDE0E056E110E066E42EC09F0C68A3A
:100FD000898A26EC09F00009D8B4F1EF07F0F3EFA5
:100FE00007F022EF08F0C7EC08F0096E09501B6EFD
:100FF0001C6A22EF08F01F50790F096E09C0F6FF36
:101000000F0EF76E0800F5501CEC09F0E9EF07F041
:101010001F50010F096E09C0F6FF0F0EF76E080092
:10102000F5501CEC09F0E9EF07F01F503D0F096E79
:1010300009C0F6FF0F0EF76E0800F5501CEC09F022
:10104000E9EF07F01BC009F01CC00AF00A50000AC3
:10105000D8B42DEF08F0E9EF07F00950630AD8B4CF
:1010600015EF08F0100AD8B4FBEF07F0070AD8B460
:1010700008EF08F0E9EF07F046EF00F0080EA76E62
:10108000900EAB6E240EAC6E080EAF6E020E7D6E2F
:10109000000E056E000E066E4CEC09F0000E056E9B
:1010A000000E066E47EC09F0000E056E000E066E8F
:1010B00051EC09F0000E206E12009E901DC001F050
:1010C0001EC002F0DBEC08F00B500C10D8B46BEF34
:1010D00008F06DEF08F07AEF08F002D87AEF08F028
:1010E0000500FA6E0B50FD6E0C50FE6EF850FF6E50
:1010F000FA5012001200AC0EF66E120EF76E000ED1
:10110000F86E00EE13F010EE08F00900F5CFEEFFD8
:10111000E550E150FAE1206A1F6A1E6A1D6A1C6AE6
:101120001B6A21902192000EF86E0001DDEF07F09E
:10113000000EAA6ECF68D60ECE6E9E90CE50CFCF48
:1011400007F0086A07C008F0076A07101D6E08500C
:101150001E6E9D80B80E056E120E066E42EC09F0F2
:10116000010ECD6E1200000E896E000E8A6E000E0A
:101170008B6ECF0E926E9368970E946E1F0E0F01BA
:101180005D6F070E5C6F000E5B6FF18E12009EAA02
:10119000CCEF08F0CEEF08F0C7EF08F0000E206E9D
:1011A000ABA2D5EF08F0D7EF08F0D9EF08F0AB9875
:1011B000AB88AE501200CDA4E0EF08F0E2EF08F0EB
:1011C000EAEF08F0CD900250CF6E01C0CEFFCD8087
:1011D000EEEF08F00250CF6E01C0CEFF120013C038
:1011E00001F014C002F0DBEC08F01F2A3C0E1F18BF
:1011F000D8A4FDEF08F0FFEF08F001EF09F0000EB2
:101200001F6E1200056E05C0C9FF9EA60AEF09F009
:101210000CEF09F005EF09F09E96C95012005AEC48
:1012200009F030EC09F0B3EC08F039EC09F098EC77
:1012300008F03EEC08F01200066E899A110E02ECDE
:1012400009F0065002EC09F0898A12009EBA2BEFD1
:1012500009F02EEF09F0010E2FEF09F0000E120039
:10126000400EC76E000EC66E010EC86E9496C69AEA
:101270001200600ED36E000ED26E000E9B6E000E3A
:101280009A6E120005C00BF006C00CF0120005C0EB
:101290000FF006C010F0120005C011F006C012F0E9
:1012A000120005C00DF006C00EF01200C0F60000DE
:0A12B00000000000D09E12001200A2
:020000040030CA
:0E00000015027F50FF8991FF0FC00FE00F40E7
:00000001FF
